{
    "contractName": "Bartoken",
    "abi": [
        {
            "inputs": [
                {
                    "internalType": "string",
                    "name": "n",
                    "type": "string"
                },
                {
                    "internalType": "string",
                    "name": "s",
                    "type": "string"
                }
            ],
            "stateMutability": "nonpayable",
            "type": "constructor"
        },
        {
            "anonymous": false,
            "inputs": [
                {
                    "indexed": true,
                    "internalType": "address",
                    "name": "owner",
                    "type": "address"
                },
                {
                    "indexed": true,
                    "internalType": "address",
                    "name": "spender",
                    "type": "address"
                },
                {
                    "indexed": false,
                    "internalType": "uint256",
                    "name": "value",
                    "type": "uint256"
                }
            ],
            "name": "Approval",
            "type": "event"
        },
        {
            "anonymous": false,
            "inputs": [
                {
                    "indexed": true,
                    "internalType": "address",
                    "name": "from",
                    "type": "address"
                },
                {
                    "indexed": true,
                    "internalType": "address",
                    "name": "to",
                    "type": "address"
                },
                {
                    "indexed": false,
                    "internalType": "uint256",
                    "name": "value",
                    "type": "uint256"
                }
            ],
            "name": "Transfer",
            "type": "event"
        },
        {
            "inputs": [
                {
                    "internalType": "address",
                    "name": "owner",
                    "type": "address"
                },
                {
                    "internalType": "address",
                    "name": "spender",
                    "type": "address"
                }
            ],
            "name": "allowance",
            "outputs": [
                {
                    "internalType": "uint256",
                    "name": "",
                    "type": "uint256"
                }
            ],
            "stateMutability": "view",
            "type": "function"
        },
        {
            "inputs": [
                {
                    "internalType": "address",
                    "name": "spender",
                    "type": "address"
                },
                {
                    "internalType": "uint256",
                    "name": "amount",
                    "type": "uint256"
                }
            ],
            "name": "approve",
            "outputs": [
                {
                    "internalType": "bool",
                    "name": "",
                    "type": "bool"
                }
            ],
            "stateMutability": "nonpayable",
            "type": "function"
        },
        {
            "inputs": [
                {
                    "internalType": "address",
                    "name": "account",
                    "type": "address"
                }
            ],
            "name": "balanceOf",
            "outputs": [
                {
                    "internalType": "uint256",
                    "name": "",
                    "type": "uint256"
                }
            ],
            "stateMutability": "view",
            "type": "function"
        },
        {
            "inputs": [],
            "name": "decimals",
            "outputs": [
                {
                    "internalType": "uint8",
                    "name": "",
                    "type": "uint8"
                }
            ],
            "stateMutability": "view",
            "type": "function"
        },
        {
            "inputs": [],
            "name": "getOwner",
            "outputs": [
                {
                    "internalType": "address",
                    "name": "",
                    "type": "address"
                }
            ],
            "stateMutability": "view",
            "type": "function"
        },
        {
            "inputs": [],
            "name": "name",
            "outputs": [
                {
                    "internalType": "string",
                    "name": "",
                    "type": "string"
                }
            ],
            "stateMutability": "view",
            "type": "function"
        },
        {
            "inputs": [],
            "name": "symbol",
            "outputs": [
                {
                    "internalType": "string",
                    "name": "",
                    "type": "string"
                }
            ],
            "stateMutability": "view",
            "type": "function"
        },
        {
            "inputs": [],
            "name": "totalSupply",
            "outputs": [
                {
                    "internalType": "uint256",
                    "name": "",
                    "type": "uint256"
                }
            ],
            "stateMutability": "view",
            "type": "function"
        },
        {
            "inputs": [
                {
                    "internalType": "address",
                    "name": "recipient",
                    "type": "address"
                },
                {
                    "internalType": "uint256",
                    "name": "amount",
                    "type": "uint256"
                }
            ],
            "name": "transfer",
            "outputs": [
                {
                    "internalType": "bool",
                    "name": "",
                    "type": "bool"
                }
            ],
            "stateMutability": "nonpayable",
            "type": "function"
        },
        {
            "inputs": [
                {
                    "internalType": "address",
                    "name": "sender",
                    "type": "address"
                },
                {
                    "internalType": "address",
                    "name": "recipient",
                    "type": "address"
                },
                {
                    "internalType": "uint256",
                    "name": "amount",
                    "type": "uint256"
                }
            ],
            "name": "transferFrom",
            "outputs": [
                {
                    "internalType": "bool",
                    "name": "",
                    "type": "bool"
                }
            ],
            "stateMutability": "nonpayable",
            "type": "function"
        }
    ],
    "bytecode": "608060405264174876e8006002556003805460ff191660091790553480156200002757600080fd5b50604051620009f6380380620009f68339810160408190526200004a9162000204565b81516200005f90600490602085019062000091565b5080516200007590600590602084019062000091565b50506002543360009081526020819052604090205550620002ab565b8280546200009f906200026e565b90600052602060002090601f016020900481019282620000c357600085556200010e565b82601f10620000de57805160ff19168380011785556200010e565b828001600101855582156200010e579182015b828111156200010e578251825591602001919060010190620000f1565b506200011c92915062000120565b5090565b5b808211156200011c576000815560010162000121565b634e487b7160e01b600052604160045260246000fd5b600082601f8301126200015f57600080fd5b81516001600160401b03808211156200017c576200017c62000137565b604051601f8301601f19908116603f01168101908282118183101715620001a757620001a762000137565b81604052838152602092508683858801011115620001c457600080fd5b600091505b83821015620001e85785820183015181830184015290820190620001c9565b83821115620001fa5760008385830101525b9695505050505050565b600080604083850312156200021857600080fd5b82516001600160401b03808211156200023057600080fd5b6200023e868387016200014d565b935060208501519150808211156200025557600080fd5b5062000264858286016200014d565b9150509250929050565b600181811c908216806200028357607f821691505b60208210811415620002a557634e487b7160e01b600052602260045260246000fd5b50919050565b61073b80620002bb6000396000f3fe608060405234801561001057600080fd5b506004361061009e5760003560e01c806370a082311161006657806370a082311461011e578063893d20e81461014757806395d89b4114610162578063a9059cbb1461016a578063dd62ed3e1461017d57600080fd5b806306fdde03146100a3578063095ea7b3146100c157806318160ddd146100e457806323b872dd146100f6578063313ce56714610109575b600080fd5b6100ab6101b6565b6040516100b89190610559565b60405180910390f35b6100d46100cf3660046105ca565b610248565b60405190151581526020016100b8565b6002545b6040519081526020016100b8565b6100d46101043660046105f4565b6102b4565b60035460405160ff90911681526020016100b8565b6100e861012c366004610630565b6001600160a01b031660009081526020819052604090205490565b6006546040516001600160a01b0390911681526020016100b8565b6100ab61046b565b6100d46101783660046105ca565b61047a565b6100e861018b366004610652565b6001600160a01b03918216600090815260016020908152604080832093909416825291909152205490565b6060600480546101c590610685565b80601f01602080910402602001604051908101604052809291908181526020018280546101f190610685565b801561023e5780601f106102135761010080835404028352916020019161023e565b820191906000526020600020905b81548152906001019060200180831161022157829003601f168201915b5050505050905090565b3360008181526001602090815260408083206001600160a01b038716808552925280832085905551919290917f8c5be1e5ebec7d5bd14f71427d1e84f3dd0314c0f7b2291e5b200ac8c7c3b925906102a39086815260200190565b60405180910390a350600192915050565b6001600160a01b0383166000908152602081905260408120548211156103135760405162461bcd60e51b815260206004820152600f60248201526e42616c616e636520746f6f206c6f7760881b60448201526064015b60405180910390fd5b6001600160a01b0380851660009081526001602090815260408083209387168352929052205482111561037c5760405162461bcd60e51b8152602060048201526011602482015270416c6c6f77616e636520746f6f206c6f7760781b604482015260640161030a565b6001600160a01b038416600090815260208190526040812080548492906103a49084906106d6565b90915550506001600160a01b038316600090815260208190526040812080548492906103d19084906106ed565b90915550506001600160a01b0380851660009081526001602090815260408083209387168352929052908120805484929061040d9084906106d6565b92505081905550826001600160a01b0316846001600160a01b03167fddf252ad1be2c89b69c2b068fc378daa952ba7f163c4a11628f55a4df523b3ef8460405161045991815260200190565b60405180910390a35060019392505050565b6060600580546101c590610685565b336000908152602081905260408120548211156104cb5760405162461bcd60e51b815260206004820152600f60248201526e42616c616e636520746f6f206c6f7760881b604482015260640161030a565b33600090815260208190526040812080548492906104ea9084906106d6565b90915550506001600160a01b038316600090815260208190526040812080548492906105179084906106ed565b90915550506040518281526001600160a01b0384169033907fddf252ad1be2c89b69c2b068fc378daa952ba7f163c4a11628f55a4df523b3ef906020016102a3565b600060208083528351808285015260005b818110156105865785810183015185820160400152820161056a565b81811115610598576000604083870101525b50601f01601f1916929092016040019392505050565b80356001600160a01b03811681146105c557600080fd5b919050565b600080604083850312156105dd57600080fd5b6105e6836105ae565b946020939093013593505050565b60008060006060848603121561060957600080fd5b610612846105ae565b9250610620602085016105ae565b9150604084013590509250925092565b60006020828403121561064257600080fd5b61064b826105ae565b9392505050565b6000806040838503121561066557600080fd5b61066e836105ae565b915061067c602084016105ae565b90509250929050565b600181811c9082168061069957607f821691505b602082108114156106ba57634e487b7160e01b600052602260045260246000fd5b50919050565b634e487b7160e01b600052601160045260246000fd5b6000828210156106e8576106e86106c0565b500390565b60008219821115610700576107006106c0565b50019056fea264697066735822122030406dfd37c549c4d91d15696193bfea966219810037121f3c5403aea12d7a6b64736f6c634300080a0033",
    "sourcePath": "/Users/nicolasbuchet/Documents/blockchain/Bartoken/contracts/Bartoken.sol",
    "compiler": {
        "name": "solc",
        "version": "0.8.10+commit.fc410830"
    },
    "functionHashes": {
        "allowance(address,address)": "dd62ed3e",
        "approve(address,uint256)": "095ea7b3",
        "balanceOf(address)": "70a08231",
        "decimals()": "313ce567",
        "getOwner()": "893d20e8",
        "name()": "06fdde03",
        "symbol()": "95d89b41",
        "totalSupply()": "18160ddd",
        "transfer(address,uint256)": "a9059cbb",
        "transferFrom(address,address,uint256)": "23b872dd"
    },
    "gasEstimates": {
        "creation": {
            "codeDepositCost": "370200",
            "executionCost": "infinite",
            "totalCost": "infinite"
        },
        "external": {
            "allowance(address,address)": "infinite",
            "approve(address,uint256)": "24522",
            "balanceOf(address)": "2540",
            "decimals()": "2378",
            "getOwner()": "2323",
            "name()": "infinite",
            "symbol()": "infinite",
            "totalSupply()": "2326",
            "transfer(address,uint256)": "53260",
            "transferFrom(address,address,uint256)": "infinite"
        }
    }
}