{
  "contractName": "Bartoken",
  "abi": [
    {
      "inputs": [],
      "stateMutability": "nonpayable",
      "type": "constructor"
    },
    {
      "anonymous": false,
      "inputs": [
        {
          "indexed": true,
          "internalType": "address",
          "name": "owner",
          "type": "address"
        },
        {
          "indexed": true,
          "internalType": "address",
          "name": "spender",
          "type": "address"
        },
        {
          "indexed": false,
          "internalType": "uint256",
          "name": "value",
          "type": "uint256"
        }
      ],
      "name": "Approval",
      "type": "event"
    },
    {
      "anonymous": false,
      "inputs": [
        {
          "indexed": true,
          "internalType": "address",
          "name": "previousOwner",
          "type": "address"
        },
        {
          "indexed": true,
          "internalType": "address",
          "name": "newOwner",
          "type": "address"
        }
      ],
      "name": "OwnershipTransferred",
      "type": "event"
    },
    {
      "anonymous": false,
      "inputs": [
        {
          "indexed": true,
          "internalType": "address",
          "name": "from",
          "type": "address"
        },
        {
          "indexed": true,
          "internalType": "address",
          "name": "to",
          "type": "address"
        },
        {
          "indexed": false,
          "internalType": "uint256",
          "name": "value",
          "type": "uint256"
        }
      ],
      "name": "Transfer",
      "type": "event"
    },
    {
      "inputs": [],
      "name": "owner",
      "outputs": [
        {
          "internalType": "address",
          "name": "",
          "type": "address"
        }
      ],
      "stateMutability": "view",
      "type": "function",
      "constant": true
    },
    {
      "inputs": [
        {
          "internalType": "address",
          "name": "newOwner",
          "type": "address"
        }
      ],
      "name": "transferOwnership",
      "outputs": [],
      "stateMutability": "nonpayable",
      "type": "function"
    },
    {
      "inputs": [],
      "name": "getOwner",
      "outputs": [
        {
          "internalType": "address",
          "name": "",
          "type": "address"
        }
      ],
      "stateMutability": "view",
      "type": "function",
      "constant": true
    },
    {
      "inputs": [],
      "name": "decimals",
      "outputs": [
        {
          "internalType": "uint8",
          "name": "",
          "type": "uint8"
        }
      ],
      "stateMutability": "view",
      "type": "function",
      "constant": true
    },
    {
      "inputs": [],
      "name": "symbol",
      "outputs": [
        {
          "internalType": "string",
          "name": "",
          "type": "string"
        }
      ],
      "stateMutability": "view",
      "type": "function",
      "constant": true
    },
    {
      "inputs": [],
      "name": "name",
      "outputs": [
        {
          "internalType": "string",
          "name": "",
          "type": "string"
        }
      ],
      "stateMutability": "view",
      "type": "function",
      "constant": true
    },
    {
      "inputs": [],
      "name": "totalSupply",
      "outputs": [
        {
          "internalType": "uint256",
          "name": "",
          "type": "uint256"
        }
      ],
      "stateMutability": "view",
      "type": "function",
      "constant": true
    },
    {
      "inputs": [
        {
          "internalType": "address",
          "name": "account",
          "type": "address"
        }
      ],
      "name": "balanceOf",
      "outputs": [
        {
          "internalType": "uint256",
          "name": "",
          "type": "uint256"
        }
      ],
      "stateMutability": "view",
      "type": "function",
      "constant": true
    },
    {
      "inputs": [
        {
          "internalType": "address",
          "name": "recipient",
          "type": "address"
        },
        {
          "internalType": "uint256",
          "name": "amount",
          "type": "uint256"
        }
      ],
      "name": "transfer",
      "outputs": [
        {
          "internalType": "bool",
          "name": "",
          "type": "bool"
        }
      ],
      "stateMutability": "nonpayable",
      "type": "function"
    },
    {
      "inputs": [
        {
          "internalType": "address",
          "name": "owner",
          "type": "address"
        },
        {
          "internalType": "address",
          "name": "spender",
          "type": "address"
        }
      ],
      "name": "allowance",
      "outputs": [
        {
          "internalType": "uint256",
          "name": "",
          "type": "uint256"
        }
      ],
      "stateMutability": "view",
      "type": "function",
      "constant": true
    },
    {
      "inputs": [
        {
          "internalType": "address",
          "name": "spender",
          "type": "address"
        },
        {
          "internalType": "uint256",
          "name": "amount",
          "type": "uint256"
        }
      ],
      "name": "approve",
      "outputs": [
        {
          "internalType": "bool",
          "name": "",
          "type": "bool"
        }
      ],
      "stateMutability": "nonpayable",
      "type": "function"
    },
    {
      "inputs": [
        {
          "internalType": "address",
          "name": "sender",
          "type": "address"
        },
        {
          "internalType": "address",
          "name": "recipient",
          "type": "address"
        },
        {
          "internalType": "uint256",
          "name": "amount",
          "type": "uint256"
        }
      ],
      "name": "transferFrom",
      "outputs": [
        {
          "internalType": "bool",
          "name": "",
          "type": "bool"
        }
      ],
      "stateMutability": "nonpayable",
      "type": "function"
    },
    {
      "inputs": [
        {
          "internalType": "address",
          "name": "spender",
          "type": "address"
        },
        {
          "internalType": "uint256",
          "name": "addedValue",
          "type": "uint256"
        }
      ],
      "name": "increaseAllowance",
      "outputs": [
        {
          "internalType": "bool",
          "name": "",
          "type": "bool"
        }
      ],
      "stateMutability": "nonpayable",
      "type": "function"
    },
    {
      "inputs": [
        {
          "internalType": "address",
          "name": "spender",
          "type": "address"
        },
        {
          "internalType": "uint256",
          "name": "substractedValue",
          "type": "uint256"
        }
      ],
      "name": "decreaseAllowance",
      "outputs": [
        {
          "internalType": "bool",
          "name": "",
          "type": "bool"
        }
      ],
      "stateMutability": "nonpayable",
      "type": "function"
    },
    {
      "inputs": [
        {
          "internalType": "uint256",
          "name": "amount",
          "type": "uint256"
        }
      ],
      "name": "mint",
      "outputs": [
        {
          "internalType": "bool",
          "name": "",
          "type": "bool"
        }
      ],
      "stateMutability": "nonpayable",
      "type": "function"
    }
  ],
  "bytecode": "0x60806040523480156200001157600080fd5b506000620000246200024360201b60201c565b9050806000806101000a81548173ffffffffffffffffffffffffffffffffffffffff021916908373ffffffffffffffffffffffffffffffffffffffff1602179055508073ffffffffffffffffffffffffffffffffffffffff16600073ffffffffffffffffffffffffffffffffffffffff167f8be0079c531659141344cd1fd0a4f28419497f9722a3daafe3b4186f6b6457e060405160405180910390a3506040518060400160405280600881526020017f426172746f6b656e000000000000000000000000000000000000000000000000815250600590805190602001906200010f9291906200024b565b506040518060400160405280600481526020017f4241525400000000000000000000000000000000000000000000000000000000815250600690805190602001906200015d9291906200024b565b506012600460006101000a81548160ff021916908360ff1602179055506ba18f07d736b90be550000000600381905550600354600160003373ffffffffffffffffffffffffffffffffffffffff1673ffffffffffffffffffffffffffffffffffffffff168152602001908152602001600020819055503373ffffffffffffffffffffffffffffffffffffffff16600073ffffffffffffffffffffffffffffffffffffffff167fddf252ad1be2c89b69c2b068fc378daa952ba7f163c4a11628f55a4df523b3ef60035460405162000235919062000316565b60405180910390a362000398565b600033905090565b828054620002599062000362565b90600052602060002090601f0160209004810192826200027d5760008555620002c9565b82601f106200029857805160ff1916838001178555620002c9565b82800160010185558215620002c9579182015b82811115620002c8578251825591602001919060010190620002ab565b5b509050620002d89190620002dc565b5090565b5b80821115620002f7576000816000905550600101620002dd565b5090565b6000819050919050565b6200031081620002fb565b82525050565b60006020820190506200032d600083018462000305565b92915050565b7f4e487b7100000000000000000000000000000000000000000000000000000000600052602260045260246000fd5b600060028204905060018216806200037b57607f821691505b6020821081141562000392576200039162000333565b5b50919050565b611add80620003a86000396000f3fe608060405234801561001057600080fd5b50600436106100f55760003560e01c8063893d20e811610097578063a457c2d711610066578063a457c2d71461029e578063a9059cbb146102ce578063dd62ed3e146102fe578063f2fde38b1461032e576100f5565b8063893d20e8146102145780638da5cb5b1461023257806395d89b4114610250578063a0712d681461026e576100f5565b806323b872dd116100d357806323b872dd14610166578063313ce5671461019657806339509351146101b457806370a08231146101e4576100f5565b806306fdde03146100fa578063095ea7b31461011857806318160ddd14610148575b600080fd5b61010261034a565b60405161010f91906111f1565b60405180910390f35b610132600480360381019061012d91906112ac565b6103dc565b60405161013f9190611307565b60405180910390f35b6101506103fa565b60405161015d9190611331565b60405180910390f35b610180600480360381019061017b919061134c565b610404565b60405161018d9190611307565b60405180910390f35b61019e6104dd565b6040516101ab91906113bb565b60405180910390f35b6101ce60048036038101906101c991906112ac565b6104f4565b6040516101db9190611307565b60405180910390f35b6101fe60048036038101906101f991906113d6565b6105a7565b60405161020b9190611331565b60405180910390f35b61021c6105f0565b6040516102299190611412565b60405180910390f35b61023a6105ff565b6040516102479190611412565b60405180910390f35b610258610628565b60405161026591906111f1565b60405180910390f35b6102886004803603810190610283919061142d565b6106ba565b6040516102959190611307565b60405180910390f35b6102b860048036038101906102b391906112ac565b61076b565b6040516102c59190611307565b60405180910390f35b6102e860048036038101906102e391906112ac565b610838565b6040516102f59190611307565b60405180910390f35b6103186004803603810190610313919061145a565b610856565b6040516103259190611331565b60405180910390f35b610348600480360381019061034391906113d6565b6108dd565b005b606060058054610359906114c9565b80601f0160208091040260200160405190810160405280929190818152602001828054610385906114c9565b80156103d25780601f106103a7576101008083540402835291602001916103d2565b820191906000526020600020905b8154815290600101906020018083116103b557829003601f168201915b5050505050905090565b60006103f06103e961097e565b8484610986565b6001905092915050565b6000600354905090565b6000610411848484610b51565b6104d28461041d61097e565b6104cd856040518060600160405280602c8152602001611a7c602c9139600260008b73ffffffffffffffffffffffffffffffffffffffff1673ffffffffffffffffffffffffffffffffffffffff168152602001908152602001600020600061048361097e565b73ffffffffffffffffffffffffffffffffffffffff1673ffffffffffffffffffffffffffffffffffffffff16815260200190815260200160002054610ddf9092919063ffffffff16565b610986565b600190509392505050565b6000600460009054906101000a900460ff16905090565b600061059d61050161097e565b84610598856002600061051261097e565b73ffffffffffffffffffffffffffffffffffffffff1673ffffffffffffffffffffffffffffffffffffffff16815260200190815260200160002060008973ffffffffffffffffffffffffffffffffffffffff1673ffffffffffffffffffffffffffffffffffffffff16815260200190815260200160002054610e4390919063ffffffff16565b610986565b6001905092915050565b6000600160008373ffffffffffffffffffffffffffffffffffffffff1673ffffffffffffffffffffffffffffffffffffffff168152602001908152602001600020549050919050565b60006105fa6105ff565b905090565b60008060009054906101000a900473ffffffffffffffffffffffffffffffffffffffff16905090565b606060068054610637906114c9565b80601f0160208091040260200160405190810160405280929190818152602001828054610663906114c9565b80156106b05780601f10610685576101008083540402835291602001916106b0565b820191906000526020600020905b81548152906001019060200180831161069357829003601f168201915b5050505050905090565b60006106c461097e565b73ffffffffffffffffffffffffffffffffffffffff1660008054906101000a900473ffffffffffffffffffffffffffffffffffffffff1673ffffffffffffffffffffffffffffffffffffffff1614610751576040517f08c379a000000000000000000000000000000000000000000000000000000000815260040161074890611547565b60405180910390fd5b61076261075c61097e565b83610ea1565b60019050919050565b600061082e61077861097e565b8461082985604051806060016040528060288152602001611a1f60289139600260006107a261097e565b73ffffffffffffffffffffffffffffffffffffffff1673ffffffffffffffffffffffffffffffffffffffff16815260200190815260200160002060008a73ffffffffffffffffffffffffffffffffffffffff1673ffffffffffffffffffffffffffffffffffffffff16815260200190815260200160002054610ddf9092919063ffffffff16565b610986565b6001905092915050565b600061084c61084561097e565b8484610b51565b6001905092915050565b6000600260008473ffffffffffffffffffffffffffffffffffffffff1673ffffffffffffffffffffffffffffffffffffffff16815260200190815260200160002060008373ffffffffffffffffffffffffffffffffffffffff1673ffffffffffffffffffffffffffffffffffffffff16815260200190815260200160002054905092915050565b6108e561097e565b73ffffffffffffffffffffffffffffffffffffffff1660008054906101000a900473ffffffffffffffffffffffffffffffffffffffff1673ffffffffffffffffffffffffffffffffffffffff1614610972576040517f08c379a000000000000000000000000000000000000000000000000000000000815260040161096990611547565b60405180910390fd5b61097b8161102b565b50565b600033905090565b600073ffffffffffffffffffffffffffffffffffffffff168373ffffffffffffffffffffffffffffffffffffffff1614156109f6576040517f08c379a00000000000000000000000000000000000000000000000000000000081526004016109ed906115d9565b60405180910390fd5b600073ffffffffffffffffffffffffffffffffffffffff168273ffffffffffffffffffffffffffffffffffffffff161415610a66576040517f08c379a0000000000000000000000000000000000000000000000000000000008152600401610a5d9061166b565b60405180910390fd5b80600260008573ffffffffffffffffffffffffffffffffffffffff1673ffffffffffffffffffffffffffffffffffffffff16815260200190815260200160002060008473ffffffffffffffffffffffffffffffffffffffff1673ffffffffffffffffffffffffffffffffffffffff168152602001908152602001600020819055508173ffffffffffffffffffffffffffffffffffffffff168373ffffffffffffffffffffffffffffffffffffffff167f8c5be1e5ebec7d5bd14f71427d1e84f3dd0314c0f7b2291e5b200ac8c7c3b92583604051610b449190611331565b60405180910390a3505050565b600073ffffffffffffffffffffffffffffffffffffffff168373ffffffffffffffffffffffffffffffffffffffff161415610bc1576040517f08c379a0000000000000000000000000000000000000000000000000000000008152600401610bb8906116fd565b60405180910390fd5b600073ffffffffffffffffffffffffffffffffffffffff168273ffffffffffffffffffffffffffffffffffffffff161415610c31576040517f08c379a0000000000000000000000000000000000000000000000000000000008152600401610c289061178f565b60405180910390fd5b610c9d81604051806060016040528060358152602001611a4760359139600160008773ffffffffffffffffffffffffffffffffffffffff1673ffffffffffffffffffffffffffffffffffffffff16815260200190815260200160002054610ddf9092919063ffffffff16565b600160008573ffffffffffffffffffffffffffffffffffffffff1673ffffffffffffffffffffffffffffffffffffffff16815260200190815260200160002081905550610d3281600160008573ffffffffffffffffffffffffffffffffffffffff1673ffffffffffffffffffffffffffffffffffffffff16815260200190815260200160002054610e4390919063ffffffff16565b600160008473ffffffffffffffffffffffffffffffffffffffff1673ffffffffffffffffffffffffffffffffffffffff168152602001908152602001600020819055508173ffffffffffffffffffffffffffffffffffffffff168373ffffffffffffffffffffffffffffffffffffffff167fddf252ad1be2c89b69c2b068fc378daa952ba7f163c4a11628f55a4df523b3ef83604051610dd29190611331565b60405180910390a3505050565b6000838311158290610e27576040517f08c379a0000000000000000000000000000000000000000000000000000000008152600401610e1e91906111f1565b60405180910390fd5b5060008385610e3691906117de565b9050809150509392505050565b6000808284610e529190611812565b905083811015610e97576040517f08c379a0000000000000000000000000000000000000000000000000000000008152600401610e8e906118b4565b60405180910390fd5b8091505092915050565b600073ffffffffffffffffffffffffffffffffffffffff168273ffffffffffffffffffffffffffffffffffffffff161415610f11576040517f08c379a0000000000000000000000000000000000000000000000000000000008152600401610f089061196c565b60405180910390fd5b610f2681600354610e4390919063ffffffff16565b600381905550610f7e81600160008573ffffffffffffffffffffffffffffffffffffffff1673ffffffffffffffffffffffffffffffffffffffff16815260200190815260200160002054610e4390919063ffffffff16565b600160008473ffffffffffffffffffffffffffffffffffffffff1673ffffffffffffffffffffffffffffffffffffffff168152602001908152602001600020819055508173ffffffffffffffffffffffffffffffffffffffff16600073ffffffffffffffffffffffffffffffffffffffff167fddf252ad1be2c89b69c2b068fc378daa952ba7f163c4a11628f55a4df523b3ef8360405161101f9190611331565b60405180910390a35050565b600073ffffffffffffffffffffffffffffffffffffffff168173ffffffffffffffffffffffffffffffffffffffff16141561109b576040517f08c379a0000000000000000000000000000000000000000000000000000000008152600401611092906119fe565b60405180910390fd5b8073ffffffffffffffffffffffffffffffffffffffff1660008054906101000a900473ffffffffffffffffffffffffffffffffffffffff1673ffffffffffffffffffffffffffffffffffffffff167f8be0079c531659141344cd1fd0a4f28419497f9722a3daafe3b4186f6b6457e060405160405180910390a3806000806101000a81548173ffffffffffffffffffffffffffffffffffffffff021916908373ffffffffffffffffffffffffffffffffffffffff16021790555050565b600081519050919050565b600082825260208201905092915050565b60005b83811015611192578082015181840152602081019050611177565b838111156111a1576000848401525b50505050565b6000601f19601f8301169050919050565b60006111c382611158565b6111cd8185611163565b93506111dd818560208601611174565b6111e6816111a7565b840191505092915050565b6000602082019050818103600083015261120b81846111b8565b905092915050565b600080fd5b600073ffffffffffffffffffffffffffffffffffffffff82169050919050565b600061124382611218565b9050919050565b61125381611238565b811461125e57600080fd5b50565b6000813590506112708161124a565b92915050565b6000819050919050565b61128981611276565b811461129457600080fd5b50565b6000813590506112a681611280565b92915050565b600080604083850312156112c3576112c2611213565b5b60006112d185828601611261565b92505060206112e285828601611297565b9150509250929050565b60008115159050919050565b611301816112ec565b82525050565b600060208201905061131c60008301846112f8565b92915050565b61132b81611276565b82525050565b60006020820190506113466000830184611322565b92915050565b60008060006060848603121561136557611364611213565b5b600061137386828701611261565b935050602061138486828701611261565b925050604061139586828701611297565b9150509250925092565b600060ff82169050919050565b6113b58161139f565b82525050565b60006020820190506113d060008301846113ac565b92915050565b6000602082840312156113ec576113eb611213565b5b60006113fa84828501611261565b91505092915050565b61140c81611238565b82525050565b60006020820190506114276000830184611403565b92915050565b60006020828403121561144357611442611213565b5b600061145184828501611297565b91505092915050565b6000806040838503121561147157611470611213565b5b600061147f85828601611261565b925050602061149085828601611261565b9150509250929050565b7f4e487b7100000000000000000000000000000000000000000000000000000000600052602260045260246000fd5b600060028204905060018216806114e157607f821691505b602082108114156114f5576114f461149a565b5b50919050565b7f4f776e61626c653a2063616c6c6572206973206e6f7420746865206f776e6572600082015250565b6000611531602083611163565b915061153c826114fb565b602082019050919050565b6000602082019050818103600083015261156081611524565b9050919050565b7f426172746f6b656e203a20617070726f76652066726f6d20746865207a65726f60008201527f2061646472657373000000000000000000000000000000000000000000000000602082015250565b60006115c3602883611163565b91506115ce82611567565b604082019050919050565b600060208201905081810360008301526115f2816115b6565b9050919050565b7f426172746f6b656e203a20617070726f766520746f20746865207a65726f206160008201527f6464726573730000000000000000000000000000000000000000000000000000602082015250565b6000611655602683611163565b9150611660826115f9565b604082019050919050565b6000602082019050818103600083015261168481611648565b9050919050565b7f426172746f6b656e203a207472616e736665722066726f6d20746865207a657260008201527f6f20616464726573730000000000000000000000000000000000000000000000602082015250565b60006116e7602983611163565b91506116f28261168b565b604082019050919050565b60006020820190508181036000830152611716816116da565b9050919050565b7f426172746f6b656e203a207472616e7366657220746f20746865207a65726f2060008201527f6164647265737300000000000000000000000000000000000000000000000000602082015250565b6000611779602783611163565b91506117848261171d565b604082019050919050565b600060208201905081810360008301526117a88161176c565b9050919050565b7f4e487b7100000000000000000000000000000000000000000000000000000000600052601160045260246000fd5b60006117e982611276565b91506117f483611276565b925082821015611807576118066117af565b5b828203905092915050565b600061181d82611276565b915061182883611276565b9250827fffffffffffffffffffffffffffffffffffffffffffffffffffffffffffffffff0382111561185d5761185c6117af565b5b828201905092915050565b7f536166654d6174683a206164646974696f6e206f766572666c6f770000000000600082015250565b600061189e601b83611163565b91506118a982611868565b602082019050919050565b600060208201905081810360008301526118cd81611891565b9050919050565b7f426172746f6b656e203a206d696e7420746f20746865207a65726f206164647260008201527f657373206e6f7420616c6c6f77656420746f20746865207a65726f206164647260208201527f6573730000000000000000000000000000000000000000000000000000000000604082015250565b6000611956604383611163565b9150611961826118d4565b606082019050919050565b6000602082019050818103600083015261198581611949565b9050919050565b7f4f776e61626c653a206e6577206f776e657220697320746865207a65726f206160008201527f6464726573730000000000000000000000000000000000000000000000000000602082015250565b60006119e8602683611163565b91506119f38261198c565b604082019050919050565b60006020820190508181036000830152611a17816119db565b905091905056fe426172746f6b656e203a20646563726561736520616c6c6f77616e63652062656c6f77207a65726f426172746f6b656e203a207472616e7366657220616d6f756e742065786365656473207468652073656e6465722062616c616e6365426172746f6b656e203a207472616e7366657220616d6f756e74206578636565647320616c6c6f77616e6365a264697066735822122067d64a70eb8349525ea316cb727c8bc93bec331130b2ddbd27df21a78f2c59a964736f6c634300080a0033",
  "immutableReferences": {},
  "source": "// SPDX-License-Identifier: MIT\npragma solidity ^0.8.10;\n\nimport './IBEP20.sol';\nimport './Context.sol';\nimport './Ownable.sol';\nimport './SafeMath.sol';\n\ncontract Bartoken is IBEP20, Context, Ownable {\n    using SafeMath for uint256;\n\n    mapping(address => uint256) private _balances;\n    mapping(address => mapping(address => uint256)) private _allowances;\n\n    uint256 private _totalSupply;\n    uint8 private _decimals;\n    string private _name;\n    string private _symbol;\n\n    constructor() {\n        _name = 'Bartoken';\n        _symbol = 'BART';\n        _decimals = 18;\n        _totalSupply = 50000000000 * 10 ** 18;\n        _balances[msg.sender] = _totalSupply;\n\n        emit Transfer(address(0), msg.sender, _totalSupply);\n    }\n\n    function getOwner() external view returns (address) {\n        return owner();\n    }\n\n    function decimals() external view returns (uint8) {\n        return _decimals;\n    }\n\n    function symbol() external view returns (string memory) {\n        return _symbol;\n    }\n\n    function name() external view returns (string memory) {\n        return _name;\n    }\n\n    function totalSupply() external view returns (uint256) {\n        return _totalSupply;\n    }\n    \n    function balanceOf(address account) external view returns (uint256) {\n        return _balances[account];\n    }\n\n    function transfer(address recipient, uint256 amount) external returns (bool) {\n        _transfer(_msgSender(), recipient, amount);\n        return true;\n    }\n\n    function allowance(address owner, address spender) external view returns (uint256) {\n        return _allowances[owner][spender];\n    }\n\n    function approve(address spender, uint256 amount) external returns (bool) {\n        _approve(_msgSender(), spender, amount);\n        return true;\n    }\n\n    function transferFrom(address sender, address recipient, uint256 amount) external returns (bool) {\n        _transfer(sender, recipient, amount);\n        _approve(sender, _msgSender(), _allowances[sender][_msgSender()].sub(amount, \"Bartoken : transfer amount exceeds allowance\"));\n        return true;\n    }  \n\n    function increaseAllowance(address spender, uint256 addedValue) public returns (bool) {\n        _approve(_msgSender(), spender, _allowances[_msgSender()][spender].add(addedValue));\n        return true;\n    }\n\n    function decreaseAllowance(address spender, uint256 substractedValue) public returns (bool) {\n        _approve(_msgSender(), spender, _allowances[_msgSender()][spender].sub(substractedValue, \"Bartoken : decrease allowance below zero\"));\n        return true;\n    }\n\n    function mint(uint256 amount) public onlyOwner returns (bool) {\n        _mint(_msgSender(), amount);\n        return true;\n    }\n\n    // Internal functions\n\n    function _transfer(address sender, address recipient, uint256 amount) internal {\n        require(sender != address(0), \"Bartoken : transfer from the zero address\");\n        require(recipient != address(0), \"Bartoken : transfer to the zero address\");\n\n        _balances[sender] = _balances[sender].sub(amount, \"Bartoken : transfer amount exceeds the sender balance\");\n        _balances[recipient] = _balances[recipient].add(amount);\n        emit Transfer(sender, recipient, amount);\n    } \n\n    function _approve(address owner, address spender, uint256 amount) internal {\n        require(owner != address(0), \"Bartoken : approve from the zero address\");\n        require(spender != address(0), \"Bartoken : approve to the zero address\");\n\n        _allowances[owner][spender] = amount;\n        emit Approval(owner, spender, amount);\n    }\n\n    function _mint(address account, uint256 amount) internal {\n        require(account != address(0), \"Bartoken : mint to the zero address not allowed to the zero address\");\n        \n        _totalSupply = _totalSupply.add(amount);\n        _balances[account] = _balances[account].add(amount);\n        emit Transfer(address(0), account, amount);\n    }\n\n    function _burn(address account, uint256 amount) internal {\n        require(account != address(0), \"Bartoken : burn from zero address not allowed\");\n\n        _balances[account] = _balances[account].sub(amount, \"Bartoken : burn amount exceeds balance\");\n        _totalSupply = _totalSupply.sub(amount);\n        emit Transfer(account, address(0), amount);\n    }\n\n    function _burnFrom(address account, uint256 amount) internal {\n        _burn(account, amount);\n        _approve(account, _msgSender(), _allowances[account][_msgSender()].sub(amount, \"Bartoken : burn amount exceeds allowance\"));\n    }\n}",
  "sourcePath": "/Users/nicolasbuchet/Documents/blockchain/Bartoken/contracts/Bartoken.sol",
  "compiler": {
    "name": "solc",
    "version": "0.8.10+commit.fc410830.Emscripten.clang"
  },
  "schemaVersion": "3.4.3",
  "updatedAt": "2021-12-15T08:55:38.006Z",
  "networkType": "ethereum",
  "devdoc": {
    "kind": "dev",
    "methods": {
      "allowance(address,address)": {
        "details": "Returns the remaining number of tokens that `spender` will be allowed to spend on behalf of `owner` through {transferFrom}. This is zero by default. This value changes when {approve} or {transferFrom} are called."
      },
      "approve(address,uint256)": {
        "details": "Sets `amount` as the allowance of `spender` over the caller's tokens. Returns a boolean value indicating whether the operation succeeded. IMPORTANT: Beware that changing an allowance with this method brings the risk that someone may use both the old and the new allowance by unfortunate transaction ordering. One possible solution to mitigate this race condition is to first reduce the spender's allowance to 0 and set the desired value afterwards: https://github.com/ethereum/EIPs/issues/20#issuecomment-263524729 Emits an {Approval} event."
      },
      "balanceOf(address)": {
        "details": "Returns the amount of tokens owned by `account`."
      },
      "decimals()": {
        "details": "Returns the token decimals."
      },
      "getOwner()": {
        "details": "Returns the bep token owner."
      },
      "name()": {
        "details": "Returns the token name."
      },
      "symbol()": {
        "details": "Returns the token symbol."
      },
      "totalSupply()": {
        "details": "Returns the amount of tokens in existence."
      },
      "transfer(address,uint256)": {
        "details": "Moves `amount` tokens from the caller's account to `recipient`. Returns a boolean value indicating whether the operation succeeded. Emits a {Transfer} event."
      },
      "transferFrom(address,address,uint256)": {
        "details": "Moves `amount` tokens from `sender` to `recipient` using the allowance mechanism. `amount` is then deducted from the caller's allowance. Returns a boolean value indicating whether the operation succeeded. Emits a {Transfer} event."
      }
    },
    "version": 1
  },
  "userdoc": {
    "kind": "user",
    "methods": {},
    "version": 1
  }
}